{
  "_format": "hh-sol-artifact-1",
  "contractName": "Staking",
  "sourceName": "contracts/Staking.sol",
  "abi": [
    {
      "inputs": [],
      "stateMutability": "payable",
      "type": "constructor"
    },
    {
      "anonymous": false,
      "inputs": [],
      "name": "StakeComplete",
      "type": "event"
    },
    {
      "anonymous": false,
      "inputs": [],
      "name": "WithdrawComplete",
      "type": "event"
    },
    {
      "stateMutability": "payable",
      "type": "fallback"
    },
    {
      "inputs": [],
      "name": "_percentInterest",
      "outputs": [
        {
          "internalType": "uint256",
          "name": "",
          "type": "uint256"
        }
      ],
      "stateMutability": "view",
      "type": "function"
    },
    {
      "inputs": [
        {
          "internalType": "address",
          "name": "walletAddress",
          "type": "address"
        }
      ],
      "name": "allowStaking",
      "outputs": [],
      "stateMutability": "nonpayable",
      "type": "function"
    },
    {
      "inputs": [
        {
          "internalType": "address",
          "name": "claimer",
          "type": "address"
        }
      ],
      "name": "canClaimFixed",
      "outputs": [
        {
          "internalType": "bool",
          "name": "",
          "type": "bool"
        }
      ],
      "stateMutability": "view",
      "type": "function"
    },
    {
      "inputs": [
        {
          "internalType": "address",
          "name": "claimer",
          "type": "address"
        }
      ],
      "name": "canClaimFlex",
      "outputs": [
        {
          "internalType": "bool",
          "name": "",
          "type": "bool"
        }
      ],
      "stateMutability": "view",
      "type": "function"
    },
    {
      "inputs": [
        {
          "internalType": "uint256",
          "name": "positionId",
          "type": "uint256"
        },
        {
          "internalType": "uint256",
          "name": "newUnlockDate",
          "type": "uint256"
        }
      ],
      "name": "changeUnlockDate",
      "outputs": [],
      "stateMutability": "nonpayable",
      "type": "function"
    },
    {
      "inputs": [
        {
          "internalType": "address",
          "name": "",
          "type": "address"
        }
      ],
      "name": "claimedFixed",
      "outputs": [
        {
          "internalType": "bool",
          "name": "",
          "type": "bool"
        }
      ],
      "stateMutability": "view",
      "type": "function"
    },
    {
      "inputs": [
        {
          "internalType": "address",
          "name": "",
          "type": "address"
        }
      ],
      "name": "claimedFlex",
      "outputs": [
        {
          "internalType": "bool",
          "name": "",
          "type": "bool"
        }
      ],
      "stateMutability": "view",
      "type": "function"
    },
    {
      "inputs": [
        {
          "internalType": "uint256",
          "name": "positionId",
          "type": "uint256"
        }
      ],
      "name": "closePosition",
      "outputs": [],
      "stateMutability": "nonpayable",
      "type": "function"
    },
    {
      "inputs": [],
      "name": "currentPositionId",
      "outputs": [
        {
          "internalType": "uint256",
          "name": "",
          "type": "uint256"
        }
      ],
      "stateMutability": "view",
      "type": "function"
    },
    {
      "inputs": [],
      "name": "fixedStakingUnlockPeriod",
      "outputs": [
        {
          "internalType": "uint256",
          "name": "",
          "type": "uint256"
        }
      ],
      "stateMutability": "view",
      "type": "function"
    },
    {
      "inputs": [],
      "name": "getBalance",
      "outputs": [
        {
          "internalType": "uint256",
          "name": "",
          "type": "uint256"
        }
      ],
      "stateMutability": "view",
      "type": "function"
    },
    {
      "inputs": [],
      "name": "getInterestRate",
      "outputs": [
        {
          "internalType": "uint256",
          "name": "",
          "type": "uint256"
        }
      ],
      "stateMutability": "view",
      "type": "function"
    },
    {
      "inputs": [],
      "name": "getLockPeriod",
      "outputs": [
        {
          "internalType": "uint256",
          "name": "",
          "type": "uint256"
        }
      ],
      "stateMutability": "view",
      "type": "function"
    },
    {
      "inputs": [
        {
          "internalType": "uint256",
          "name": "positionId",
          "type": "uint256"
        }
      ],
      "name": "getPositionById",
      "outputs": [
        {
          "components": [
            {
              "internalType": "uint256",
              "name": "positionId",
              "type": "uint256"
            },
            {
              "internalType": "address",
              "name": "walletAddress",
              "type": "address"
            },
            {
              "internalType": "uint256",
              "name": "createdDate",
              "type": "uint256"
            },
            {
              "internalType": "uint256",
              "name": "unlockDate",
              "type": "uint256"
            },
            {
              "internalType": "uint256",
              "name": "percentInterest",
              "type": "uint256"
            },
            {
              "internalType": "uint256",
              "name": "plegWeiStaked",
              "type": "uint256"
            },
            {
              "internalType": "uint256",
              "name": "plegInterest",
              "type": "uint256"
            },
            {
              "internalType": "bool",
              "name": "open",
              "type": "bool"
            },
            {
              "internalType": "bool",
              "name": "flexible",
              "type": "bool"
            },
            {
              "internalType": "uint256",
              "name": "earnedInterest",
              "type": "uint256"
            }
          ],
          "internalType": "struct Staking.Position",
          "name": "",
          "type": "tuple"
        }
      ],
      "stateMutability": "view",
      "type": "function"
    },
    {
      "inputs": [
        {
          "internalType": "address",
          "name": "walletAddress",
          "type": "address"
        }
      ],
      "name": "getPositionIdsForAddress",
      "outputs": [
        {
          "internalType": "uint256[]",
          "name": "",
          "type": "uint256[]"
        }
      ],
      "stateMutability": "view",
      "type": "function"
    },
    {
      "inputs": [
        {
          "internalType": "bool",
          "name": "",
          "type": "bool"
        }
      ],
      "name": "interest",
      "outputs": [
        {
          "internalType": "uint256",
          "name": "",
          "type": "uint256"
        }
      ],
      "stateMutability": "view",
      "type": "function"
    },
    {
      "inputs": [],
      "name": "owner",
      "outputs": [
        {
          "internalType": "address",
          "name": "",
          "type": "address"
        }
      ],
      "stateMutability": "view",
      "type": "function"
    },
    {
      "inputs": [
        {
          "internalType": "address",
          "name": "",
          "type": "address"
        },
        {
          "internalType": "uint256",
          "name": "",
          "type": "uint256"
        }
      ],
      "name": "positionIdsByAddress",
      "outputs": [
        {
          "internalType": "uint256",
          "name": "",
          "type": "uint256"
        }
      ],
      "stateMutability": "view",
      "type": "function"
    },
    {
      "inputs": [
        {
          "internalType": "uint256",
          "name": "",
          "type": "uint256"
        }
      ],
      "name": "positions",
      "outputs": [
        {
          "internalType": "uint256",
          "name": "positionId",
          "type": "uint256"
        },
        {
          "internalType": "address",
          "name": "walletAddress",
          "type": "address"
        },
        {
          "internalType": "uint256",
          "name": "createdDate",
          "type": "uint256"
        },
        {
          "internalType": "uint256",
          "name": "unlockDate",
          "type": "uint256"
        },
        {
          "internalType": "uint256",
          "name": "percentInterest",
          "type": "uint256"
        },
        {
          "internalType": "uint256",
          "name": "plegWeiStaked",
          "type": "uint256"
        },
        {
          "internalType": "uint256",
          "name": "plegInterest",
          "type": "uint256"
        },
        {
          "internalType": "bool",
          "name": "open",
          "type": "bool"
        },
        {
          "internalType": "bool",
          "name": "flexible",
          "type": "bool"
        },
        {
          "internalType": "uint256",
          "name": "earnedInterest",
          "type": "uint256"
        }
      ],
      "stateMutability": "view",
      "type": "function"
    },
    {
      "inputs": [
        {
          "internalType": "bool",
          "name": "_flexible",
          "type": "bool"
        }
      ],
      "name": "stakePleg",
      "outputs": [],
      "stateMutability": "payable",
      "type": "function"
    },
    {
      "inputs": [
        {
          "internalType": "uint256",
          "name": "stakingDate",
          "type": "uint256"
        }
      ],
      "name": "tenMinutesHavePassed",
      "outputs": [
        {
          "internalType": "bool",
          "name": "",
          "type": "bool"
        }
      ],
      "stateMutability": "view",
      "type": "function"
    },
    {
      "stateMutability": "payable",
      "type": "receive"
    }
  ],
  "bytecode": "0x608060405262015180600b55612710600c55336000806101000a81548173ffffffffffffffffffffffffffffffffffffffff021916908373ffffffffffffffffffffffffffffffffffffffff1602179055506000600a81905550611388600f6000600115151515815260200190815260200160002081905550612710600f60008015151515815260200190815260200160002081905550611cfe806100a56000396000f3fe60806040526004361061012e5760003560e01c80638384731e116100ab578063b838ec861161006f578063b838ec861461041e578063c7c9d0551461045b578063d171235014610484578063dd8e0ac3146104c1578063e43db193146104fe578063fd4fff201461052957610135565b80638384731e1461030a5780638da5cb5b1461034757806399fbab8814610372578063a126d601146103b8578063a203bbe4146103e157610135565b806345eae373116100f257806345eae3731461021e5780635257b5661461025b5780636deb34e61461028657806378cf87d0146102c357806381a5a056146102df57610135565b806306515656146101375780631131c8cd1461016057806312065fe01461018b578063266c4180146101b657806340d98a44146101e157610135565b3661013557005b005b34801561014357600080fd5b5061015e60048036038101906101599190611401565b610566565b005b34801561016c57600080fd5b506101756106a7565b604051610182919061188b565b60405180910390f35b34801561019757600080fd5b506101a06106ad565b6040516101ad919061188b565b60405180910390f35b3480156101c257600080fd5b506101cb6106b5565b6040516101d8919061188b565b60405180910390f35b3480156101ed57600080fd5b5061020860048036038101906102039190611401565b6106bb565b6040516102159190611792565b60405180910390f35b34801561022a57600080fd5b506102456004803603810190610240919061142a565b610752565b604051610252919061188b565b60405180910390f35b34801561026757600080fd5b50610270610783565b60405161027d919061188b565b60405180910390f35b34801561029257600080fd5b506102ad60048036038101906102a89190611401565b61078d565b6040516102ba91906117b4565b60405180910390f35b6102dd60048036038101906102d89190611466565b6107ad565b005b3480156102eb57600080fd5b506102f4610b71565b604051610301919061188b565b60405180910390f35b34801561031657600080fd5b50610331600480360381019061032c919061148f565b610b77565b60405161033e91906117b4565b60405180910390f35b34801561035357600080fd5b5061035c610b91565b6040516103699190611777565b60405180910390f35b34801561037e57600080fd5b506103996004803603810190610394919061148f565b610bb5565b6040516103af9a999897969594939291906118a6565b60405180910390f35b3480156103c457600080fd5b506103df60048036038101906103da919061148f565b610c43565b005b3480156103ed57600080fd5b5061040860048036038101906104039190611401565b611095565b60405161041591906117b4565b60405180910390f35b34801561042a57600080fd5b506104456004803603810190610440919061148f565b6110ec565b604051610452919061186f565b60405180910390f35b34801561046757600080fd5b50610482600480360381019061047d91906114b8565b6111ec565b005b34801561049057600080fd5b506104ab60048036038101906104a69190611401565b611299565b6040516104b891906117b4565b60405180910390f35b3480156104cd57600080fd5b506104e860048036038101906104e39190611466565b6112f0565b6040516104f5919061188b565b60405180910390f35b34801561050a57600080fd5b50610513611308565b604051610520919061188b565b60405180910390f35b34801561053557600080fd5b50610550600480360381019061054b9190611401565b611312565b60405161055d91906117b4565b60405180910390f35b3373ffffffffffffffffffffffffffffffffffffffff1660008054906101000a900473ffffffffffffffffffffffffffffffffffffffff1673ffffffffffffffffffffffffffffffffffffffff16146105f4576040517f08c379a00000000000000000000000000000000000000000000000000000000081526004016105eb9061182f565b60405180910390fd5b6000601060008373ffffffffffffffffffffffffffffffffffffffff1673ffffffffffffffffffffffffffffffffffffffff16815260200190815260200160002060006101000a81548160ff0219169083151502179055506000601160008373ffffffffffffffffffffffffffffffffffffffff1673ffffffffffffffffffffffffffffffffffffffff16815260200190815260200160002060006101000a81548160ff02191690831515021790555050565b600a5481565b600047905090565b600c5481565b6060600e60008373ffffffffffffffffffffffffffffffffffffffff1673ffffffffffffffffffffffffffffffffffffffff16815260200190815260200160002080548060200260200160405190810160405280929190818152602001828054801561074657602002820191906000526020600020905b815481526020019060010190808311610732575b50505050509050919050565b600e602052816000526040600020818154811061076e57600080fd5b90600052602060002001600091509150505481565b6000600c54905090565b60106020528060005260406000206000915054906101000a900460ff1681565b600115158115151415610803576107c333611095565b610802576040517f08c379a00000000000000000000000000000000000000000000000000000000081526004016107f9906117ef565b60405180910390fd5b5b6000151581151514156108595761081933611299565b610858576040517f08c379a000000000000000000000000000000000000000000000000000000000815260040161084f906117cf565b60405180910390fd5b5b604051806101400160405280600a5481526020013373ffffffffffffffffffffffffffffffffffffffff168152602001428152602001600b544261089d9190611997565b8152602001600f60008415151515815260200190815260200160002054815260200166d529ae9e86000081526020016108f4600f6000851515151581526020019081526020016000205466d529ae9e860000611332565b815260200160011515815260200182151581526020016000815250600d6000600a5481526020019081526020016000206000820151816000015560208201518160010160006101000a81548173ffffffffffffffffffffffffffffffffffffffff021916908373ffffffffffffffffffffffffffffffffffffffff16021790555060408201518160020155606082015181600301556080820151816004015560a0820151816005015560c0820151816006015560e08201518160070160006101000a81548160ff0219169083151502179055506101008201518160070160016101000a81548160ff0219169083151502179055506101208201518160080155905050600e60003373ffffffffffffffffffffffffffffffffffffffff1673ffffffffffffffffffffffffffffffffffffffff168152602001908152602001600020600a549080600181540180825580915050600190039060005260206000200160009091909190915055600a6000815480929190610a7190611ac0565b9190505550600115158115151415610adc576001601160003373ffffffffffffffffffffffffffffffffffffffff1673ffffffffffffffffffffffffffffffffffffffff16815260200190815260200160002060006101000a81548160ff0219169083151502179055505b600015158115151415610b42576001601060003373ffffffffffffffffffffffffffffffffffffffff1673ffffffffffffffffffffffffffffffffffffffff16815260200190815260200160002060006101000a81548160ff0219169083151502179055505b7f01f436312926beba2deb58920a4d01d3e2998228bb3ad1e7a5326cf43c4d1b8560405160405180910390a150565b600b5481565b600061025882610b879190611997565b4210159050919050565b60008054906101000a900473ffffffffffffffffffffffffffffffffffffffff1681565b600d6020528060005260406000206000915090508060000154908060010160009054906101000a900473ffffffffffffffffffffffffffffffffffffffff16908060020154908060030154908060040154908060050154908060060154908060070160009054906101000a900460ff16908060070160019054906101000a900460ff1690806008015490508a565b3373ffffffffffffffffffffffffffffffffffffffff16600d600083815260200190815260200160002060010160009054906101000a900473ffffffffffffffffffffffffffffffffffffffff1673ffffffffffffffffffffffffffffffffffffffff1614610ce7576040517f08c379a0000000000000000000000000000000000000000000000000000000008152600401610cde9061180f565b60405180910390fd5b60011515600d600083815260200190815260200160002060070160009054906101000a900460ff16151514610d51576040517f08c379a0000000000000000000000000000000000000000000000000000000008152600401610d489061184f565b60405180910390fd5b6000600d600083815260200190815260200160002060070160006101000a81548160ff021916908315150217905550600d600082815260200190815260200160002060070160019054906101000a900460ff1615610ec257600060019050600081600d600085815260200190815260200160002060060154610dd39190611a1e565b905060001515610df8600d600086815260200190815260200160002060020154610b77565b15151415610e1057600281610e0d91906119ed565b90505b600081600d600086815260200190815260200160002060050154610e349190611997565b90503373ffffffffffffffffffffffffffffffffffffffff1681604051610e5a90611762565b60006040518083038185875af1925050503d8060008114610e97576040519150601f19603f3d011682016040523d82523d6000602084013e610e9c565b606091505b50505081600d600086815260200190815260200160002060080181905550505050611066565b60011515610ee5600d600084815260200190815260200160002060020154610b77565b15151415610fc9576000600d600083815260200190815260200160002060060154600d600084815260200190815260200160002060050154610f279190611997565b90503373ffffffffffffffffffffffffffffffffffffffff1681604051610f4d90611762565b60006040518083038185875af1925050503d8060008114610f8a576040519150601f19603f3d011682016040523d82523d6000602084013e610f8f565b606091505b505050600d600083815260200190815260200160002060060154600d60008481526020019081526020016000206008018190555050611065565b3373ffffffffffffffffffffffffffffffffffffffff16600d60008381526020019081526020016000206005015460405161100390611762565b60006040518083038185875af1925050503d8060008114611040576040519150601f19603f3d011682016040523d82523d6000602084013e611045565b606091505b5050506000600d6000838152602001908152602001600020600801819055505b5b7f852267b619ccc49c4941eadd7b0df613a646044e6b39e2e7f2a3e8ad4f94a06160405160405180910390a150565b6000601160008373ffffffffffffffffffffffffffffffffffffffff1673ffffffffffffffffffffffffffffffffffffffff16815260200190815260200160002060009054906101000a900460ff16159050919050565b6110f4611355565b600d600083815260200190815260200160002060405180610140016040529081600082015481526020016001820160009054906101000a900473ffffffffffffffffffffffffffffffffffffffff1673ffffffffffffffffffffffffffffffffffffffff1673ffffffffffffffffffffffffffffffffffffffff16815260200160028201548152602001600382015481526020016004820154815260200160058201548152602001600682015481526020016007820160009054906101000a900460ff161515151581526020016007820160019054906101000a900460ff161515151581526020016008820154815250509050919050565b3373ffffffffffffffffffffffffffffffffffffffff1660008054906101000a900473ffffffffffffffffffffffffffffffffffffffff1673ffffffffffffffffffffffffffffffffffffffff161461127a576040517f08c379a00000000000000000000000000000000000000000000000000000000081526004016112719061182f565b60405180910390fd5b80600d6000848152602001908152602001600020600301819055505050565b6000601060008373ffffffffffffffffffffffffffffffffffffffff1673ffffffffffffffffffffffffffffffffffffffff16815260200190815260200160002060009054906101000a900460ff16159050919050565b600f6020528060005260406000206000915090505481565b6000600b54905090565b60116020528060005260406000206000915054906101000a900460ff1681565b600061271082846113439190611a1e565b61134d91906119ed565b905092915050565b60405180610140016040528060008152602001600073ffffffffffffffffffffffffffffffffffffffff1681526020016000815260200160008152602001600081526020016000815260200160008152602001600015158152602001600015158152602001600081525090565b6000813590506113d181611c83565b92915050565b6000813590506113e681611c9a565b92915050565b6000813590506113fb81611cb1565b92915050565b60006020828403121561141357600080fd5b6000611421848285016113c2565b91505092915050565b6000806040838503121561143d57600080fd5b600061144b858286016113c2565b925050602061145c858286016113ec565b9150509250929050565b60006020828403121561147857600080fd5b6000611486848285016113d7565b91505092915050565b6000602082840312156114a157600080fd5b60006114af848285016113ec565b91505092915050565b600080604083850312156114cb57600080fd5b60006114d9858286016113ec565b92505060206114ea858286016113ec565b9150509250929050565b60006115008383611744565b60208301905092915050565b61151581611a78565b82525050565b61152481611a78565b82525050565b600061153582611952565b61153f818561196a565b935061154a83611942565b8060005b8381101561157b57815161156288826114f4565b975061156d8361195d565b92505060018101905061154e565b5085935050505092915050565b61159181611a8a565b82525050565b6115a081611a8a565b82525050565b60006115b3601e83611986565b91506115be82611b67565b602082019050919050565b60006115d6601d83611986565b91506115e182611b90565b602082019050919050565b60006115f9602983611986565b915061160482611bb9565b604082019050919050565b600061161c602283611986565b915061162782611c08565b604082019050919050565b600061163f601a83611986565b915061164a82611c57565b602082019050919050565b600061166260008361197b565b915061166d82611c80565b600082019050919050565b6101408201600082015161168f6000850182611744565b5060208201516116a2602085018261150c565b5060408201516116b56040850182611744565b5060608201516116c86060850182611744565b5060808201516116db6080850182611744565b5060a08201516116ee60a0850182611744565b5060c082015161170160c0850182611744565b5060e082015161171460e0850182611588565b50610100820151611729610100850182611588565b5061012082015161173e610120850182611744565b50505050565b61174d81611ab6565b82525050565b61175c81611ab6565b82525050565b600061176d82611655565b9150819050919050565b600060208201905061178c600083018461151b565b92915050565b600060208201905081810360008301526117ac818461152a565b905092915050565b60006020820190506117c96000830184611597565b92915050565b600060208201905081810360008301526117e8816115a6565b9050919050565b60006020820190508181036000830152611808816115c9565b9050919050565b60006020820190508181036000830152611828816115ec565b9050919050565b600060208201905081810360008301526118488161160f565b9050919050565b6000602082019050818103600083015261186881611632565b9050919050565b6000610140820190506118856000830184611678565b92915050565b60006020820190506118a06000830184611753565b92915050565b6000610140820190506118bc600083018d611753565b6118c9602083018c61151b565b6118d6604083018b611753565b6118e3606083018a611753565b6118f06080830189611753565b6118fd60a0830188611753565b61190a60c0830187611753565b61191760e0830186611597565b611925610100830185611597565b611933610120830184611753565b9b9a5050505050505050505050565b6000819050602082019050919050565b600081519050919050565b6000602082019050919050565b600082825260208201905092915050565b600081905092915050565b600082825260208201905092915050565b60006119a282611ab6565b91506119ad83611ab6565b9250827fffffffffffffffffffffffffffffffffffffffffffffffffffffffffffffffff038211156119e2576119e1611b09565b5b828201905092915050565b60006119f882611ab6565b9150611a0383611ab6565b925082611a1357611a12611b38565b5b828204905092915050565b6000611a2982611ab6565b9150611a3483611ab6565b9250817fffffffffffffffffffffffffffffffffffffffffffffffffffffffffffffffff0483118215151615611a6d57611a6c611b09565b5b828202905092915050565b6000611a8382611a96565b9050919050565b60008115159050919050565b600073ffffffffffffffffffffffffffffffffffffffff82169050919050565b6000819050919050565b6000611acb82611ab6565b91507fffffffffffffffffffffffffffffffffffffffffffffffffffffffffffffffff821415611afe57611afd611b09565b5b600182019050919050565b7f4e487b7100000000000000000000000000000000000000000000000000000000600052601160045260246000fd5b7f4e487b7100000000000000000000000000000000000000000000000000000000600052601260045260246000fd5b7f557365722063616e206f6e6c79207374616b65206669786564206f6e63650000600082015250565b7f557365722063616e206f6e6c79207374616b6520666c6578206f6e6365000000600082015250565b7f4f6e6c7920706f736974696f6e2063726561746f72206d6179206d6f6469667960008201527f20706f736974696f6e0000000000000000000000000000000000000000000000602082015250565b7f4f6e6c79206f776e6572206d6179206d6f6469667920756e6c6f636b2064617460008201527f6573000000000000000000000000000000000000000000000000000000000000602082015250565b7f506f736974696f6e20697320616c726561647920636c6f736564000000000000600082015250565b50565b611c8c81611a78565b8114611c9757600080fd5b50565b611ca381611a8a565b8114611cae57600080fd5b50565b611cba81611ab6565b8114611cc557600080fd5b5056fea2646970667358221220d042fbe898ef5e8f301ee40b079ab0506607d4b3ddfade3ce09d9157c01046b364736f6c63430008040033",
  "linkReferences": {},
  "deployedLinkReferences": {}
}